{
  "_format": "hh-sol-artifact-1",
  "contractName": "MakePolyuGreatAgain",
  "sourceName": "contracts/MySimpleToken.sol",
  "abi": [
    {
      "inputs": [
        {
          "internalType": "address",
          "name": "recipient",
          "type": "address"
        },
        {
          "internalType": "address",
          "name": "initialOwner",
          "type": "address"
        }
      ],
      "stateMutability": "nonpayable",
      "type": "constructor"
    },
    {
      "inputs": [],
      "name": "ECDSAInvalidSignature",
      "type": "error"
    },
    {
      "inputs": [
        {
          "internalType": "uint256",
          "name": "length",
          "type": "uint256"
        }
      ],
      "name": "ECDSAInvalidSignatureLength",
      "type": "error"
    },
    {
      "inputs": [
        {
          "internalType": "bytes32",
          "name": "s",
          "type": "bytes32"
        }
      ],
      "name": "ECDSAInvalidSignatureS",
      "type": "error"
    },
    {
      "inputs": [
        {
          "internalType": "address",
          "name": "spender",
          "type": "address"
        },
        {
          "internalType": "uint256",
          "name": "allowance",
          "type": "uint256"
        },
        {
          "internalType": "uint256",
          "name": "needed",
          "type": "uint256"
        }
      ],
      "name": "ERC20InsufficientAllowance",
      "type": "error"
    },
    {
      "inputs": [
        {
          "internalType": "address",
          "name": "sender",
          "type": "address"
        },
        {
          "internalType": "uint256",
          "name": "balance",
          "type": "uint256"
        },
        {
          "internalType": "uint256",
          "name": "needed",
          "type": "uint256"
        }
      ],
      "name": "ERC20InsufficientBalance",
      "type": "error"
    },
    {
      "inputs": [
        {
          "internalType": "address",
          "name": "approver",
          "type": "address"
        }
      ],
      "name": "ERC20InvalidApprover",
      "type": "error"
    },
    {
      "inputs": [
        {
          "internalType": "address",
          "name": "receiver",
          "type": "address"
        }
      ],
      "name": "ERC20InvalidReceiver",
      "type": "error"
    },
    {
      "inputs": [
        {
          "internalType": "address",
          "name": "sender",
          "type": "address"
        }
      ],
      "name": "ERC20InvalidSender",
      "type": "error"
    },
    {
      "inputs": [
        {
          "internalType": "address",
          "name": "spender",
          "type": "address"
        }
      ],
      "name": "ERC20InvalidSpender",
      "type": "error"
    },
    {
      "inputs": [
        {
          "internalType": "uint256",
          "name": "deadline",
          "type": "uint256"
        }
      ],
      "name": "ERC2612ExpiredSignature",
      "type": "error"
    },
    {
      "inputs": [
        {
          "internalType": "address",
          "name": "signer",
          "type": "address"
        },
        {
          "internalType": "address",
          "name": "owner",
          "type": "address"
        }
      ],
      "name": "ERC2612InvalidSigner",
      "type": "error"
    },
    {
      "inputs": [
        {
          "internalType": "address",
          "name": "account",
          "type": "address"
        },
        {
          "internalType": "uint256",
          "name": "currentNonce",
          "type": "uint256"
        }
      ],
      "name": "InvalidAccountNonce",
      "type": "error"
    },
    {
      "inputs": [],
      "name": "InvalidShortString",
      "type": "error"
    },
    {
      "inputs": [
        {
          "internalType": "address",
          "name": "owner",
          "type": "address"
        }
      ],
      "name": "OwnableInvalidOwner",
      "type": "error"
    },
    {
      "inputs": [
        {
          "internalType": "address",
          "name": "account",
          "type": "address"
        }
      ],
      "name": "OwnableUnauthorizedAccount",
      "type": "error"
    },
    {
      "inputs": [
        {
          "internalType": "string",
          "name": "str",
          "type": "string"
        }
      ],
      "name": "StringTooLong",
      "type": "error"
    },
    {
      "anonymous": false,
      "inputs": [
        {
          "indexed": true,
          "internalType": "address",
          "name": "owner",
          "type": "address"
        },
        {
          "indexed": true,
          "internalType": "address",
          "name": "spender",
          "type": "address"
        },
        {
          "indexed": false,
          "internalType": "uint256",
          "name": "value",
          "type": "uint256"
        }
      ],
      "name": "Approval",
      "type": "event"
    },
    {
      "anonymous": false,
      "inputs": [],
      "name": "EIP712DomainChanged",
      "type": "event"
    },
    {
      "anonymous": false,
      "inputs": [
        {
          "indexed": true,
          "internalType": "address",
          "name": "previousOwner",
          "type": "address"
        },
        {
          "indexed": true,
          "internalType": "address",
          "name": "newOwner",
          "type": "address"
        }
      ],
      "name": "OwnershipTransferred",
      "type": "event"
    },
    {
      "anonymous": false,
      "inputs": [
        {
          "indexed": true,
          "internalType": "address",
          "name": "from",
          "type": "address"
        },
        {
          "indexed": true,
          "internalType": "address",
          "name": "to",
          "type": "address"
        },
        {
          "indexed": false,
          "internalType": "uint256",
          "name": "value",
          "type": "uint256"
        }
      ],
      "name": "Transfer",
      "type": "event"
    },
    {
      "inputs": [],
      "name": "DOMAIN_SEPARATOR",
      "outputs": [
        {
          "internalType": "bytes32",
          "name": "",
          "type": "bytes32"
        }
      ],
      "stateMutability": "view",
      "type": "function"
    },
    {
      "inputs": [],
      "name": "EXCHANGE_RATE",
      "outputs": [
        {
          "internalType": "uint256",
          "name": "",
          "type": "uint256"
        }
      ],
      "stateMutability": "view",
      "type": "function"
    },
    {
      "inputs": [
        {
          "internalType": "address",
          "name": "owner",
          "type": "address"
        },
        {
          "internalType": "address",
          "name": "spender",
          "type": "address"
        }
      ],
      "name": "allowance",
      "outputs": [
        {
          "internalType": "uint256",
          "name": "",
          "type": "uint256"
        }
      ],
      "stateMutability": "view",
      "type": "function"
    },
    {
      "inputs": [
        {
          "internalType": "address",
          "name": "spender",
          "type": "address"
        },
        {
          "internalType": "uint256",
          "name": "value",
          "type": "uint256"
        }
      ],
      "name": "approve",
      "outputs": [
        {
          "internalType": "bool",
          "name": "",
          "type": "bool"
        }
      ],
      "stateMutability": "nonpayable",
      "type": "function"
    },
    {
      "inputs": [
        {
          "internalType": "address",
          "name": "account",
          "type": "address"
        }
      ],
      "name": "balanceOf",
      "outputs": [
        {
          "internalType": "uint256",
          "name": "",
          "type": "uint256"
        }
      ],
      "stateMutability": "view",
      "type": "function"
    },
    {
      "inputs": [],
      "name": "decimals",
      "outputs": [
        {
          "internalType": "uint8",
          "name": "",
          "type": "uint8"
        }
      ],
      "stateMutability": "view",
      "type": "function"
    },
    {
      "inputs": [],
      "name": "eip712Domain",
      "outputs": [
        {
          "internalType": "bytes1",
          "name": "fields",
          "type": "bytes1"
        },
        {
          "internalType": "string",
          "name": "name",
          "type": "string"
        },
        {
          "internalType": "string",
          "name": "version",
          "type": "string"
        },
        {
          "internalType": "uint256",
          "name": "chainId",
          "type": "uint256"
        },
        {
          "internalType": "address",
          "name": "verifyingContract",
          "type": "address"
        },
        {
          "internalType": "bytes32",
          "name": "salt",
          "type": "bytes32"
        },
        {
          "internalType": "uint256[]",
          "name": "extensions",
          "type": "uint256[]"
        }
      ],
      "stateMutability": "view",
      "type": "function"
    },
    {
      "inputs": [
        {
          "internalType": "address",
          "name": "to",
          "type": "address"
        },
        {
          "internalType": "uint256",
          "name": "amount",
          "type": "uint256"
        }
      ],
      "name": "mint",
      "outputs": [],
      "stateMutability": "nonpayable",
      "type": "function"
    },
    {
      "inputs": [],
      "name": "name",
      "outputs": [
        {
          "internalType": "string",
          "name": "",
          "type": "string"
        }
      ],
      "stateMutability": "view",
      "type": "function"
    },
    {
      "inputs": [
        {
          "internalType": "address",
          "name": "owner",
          "type": "address"
        }
      ],
      "name": "nonces",
      "outputs": [
        {
          "internalType": "uint256",
          "name": "",
          "type": "uint256"
        }
      ],
      "stateMutability": "view",
      "type": "function"
    },
    {
      "inputs": [],
      "name": "owner",
      "outputs": [
        {
          "internalType": "address",
          "name": "",
          "type": "address"
        }
      ],
      "stateMutability": "view",
      "type": "function"
    },
    {
      "inputs": [
        {
          "internalType": "address",
          "name": "owner",
          "type": "address"
        },
        {
          "internalType": "address",
          "name": "spender",
          "type": "address"
        },
        {
          "internalType": "uint256",
          "name": "value",
          "type": "uint256"
        },
        {
          "internalType": "uint256",
          "name": "deadline",
          "type": "uint256"
        },
        {
          "internalType": "uint8",
          "name": "v",
          "type": "uint8"
        },
        {
          "internalType": "bytes32",
          "name": "r",
          "type": "bytes32"
        },
        {
          "internalType": "bytes32",
          "name": "s",
          "type": "bytes32"
        }
      ],
      "name": "permit",
      "outputs": [],
      "stateMutability": "nonpayable",
      "type": "function"
    },
    {
      "inputs": [],
      "name": "renounceOwnership",
      "outputs": [],
      "stateMutability": "nonpayable",
      "type": "function"
    },
    {
      "inputs": [],
      "name": "symbol",
      "outputs": [
        {
          "internalType": "string",
          "name": "",
          "type": "string"
        }
      ],
      "stateMutability": "view",
      "type": "function"
    },
    {
      "inputs": [],
      "name": "totalSupply",
      "outputs": [
        {
          "internalType": "uint256",
          "name": "",
          "type": "uint256"
        }
      ],
      "stateMutability": "view",
      "type": "function"
    },
    {
      "inputs": [
        {
          "internalType": "address",
          "name": "to",
          "type": "address"
        },
        {
          "internalType": "uint256",
          "name": "value",
          "type": "uint256"
        }
      ],
      "name": "transfer",
      "outputs": [
        {
          "internalType": "bool",
          "name": "",
          "type": "bool"
        }
      ],
      "stateMutability": "nonpayable",
      "type": "function"
    },
    {
      "inputs": [
        {
          "internalType": "address",
          "name": "from",
          "type": "address"
        },
        {
          "internalType": "address",
          "name": "to",
          "type": "address"
        },
        {
          "internalType": "uint256",
          "name": "value",
          "type": "uint256"
        }
      ],
      "name": "transferFrom",
      "outputs": [
        {
          "internalType": "bool",
          "name": "",
          "type": "bool"
        }
      ],
      "stateMutability": "nonpayable",
      "type": "function"
    },
    {
      "inputs": [
        {
          "internalType": "address",
          "name": "newOwner",
          "type": "address"
        }
      ],
      "name": "transferOwnership",
      "outputs": [],
      "stateMutability": "nonpayable",
      "type": "function"
    },
    {
      "inputs": [
        {
          "internalType": "address",
          "name": "to",
          "type": "address"
        },
        {
          "internalType": "uint256",
          "name": "hkdAmount",
          "type": "uint256"
        }
      ],
      "name": "transferToUser",
      "outputs": [],
      "stateMutability": "nonpayable",
      "type": "function"
    }
  ],
  "bytecode": "0x61016060405234801561001157600080fd5b506040516118e43803806118e483398101604081905261003091610437565b6040518060400160405280601381526020017226b0b5b2a837b63cbaa3b932b0ba20b3b0b4b760691b81525080604051806040016040528060018152602001603160f81b815250836040518060400160405280601381526020017226b0b5b2a837b63cbaa3b932b0ba20b3b0b4b760691b815250604051806040016040528060048152602001634d50474160e01b81525081600390816100d09190610509565b5060046100dd8282610509565b5050506001600160a01b03811661010f57604051631e4fbdf760e01b8152600060048201526024015b60405180910390fd5b610118816101f4565b50610124826006610246565b61012052610133816007610246565b61014052815160208084019190912060e052815190820120610100524660a0526101c060e05161010051604080517f8b73c3c69bb8fe3d512ecc4cf759cc79239f7b179b0ffacaa9a75d522b39400f60208201529081019290925260608201524660808201523060a082015260009060c00160405160208183030381529060405280519060200120905090565b60805250503060c052506101ed826101da6012600a6106c4565b6101e890633b9aca006106da565b610279565b5050610776565b600580546001600160a01b038381166001600160a01b0319831681179093556040519116919082907f8be0079c531659141344cd1fd0a4f28419497f9722a3daafe3b4186f6b6457e090600090a35050565b60006020835110156102625761025b836102b3565b9050610273565b8161026d8482610509565b5060ff90505b92915050565b6001600160a01b0382166102a35760405163ec442f0560e01b815260006004820152602401610106565b6102af600083836102f1565b5050565b600080829050601f815111156102de578260405163305a27a960e01b815260040161010691906106f1565b80516102e98261073f565b179392505050565b6001600160a01b03831661031c5780600260008282546103119190610763565b9091555061038e9050565b6001600160a01b0383166000908152602081905260409020548181101561036f5760405163391434e360e21b81526001600160a01b03851660048201526024810182905260448101839052606401610106565b6001600160a01b03841660009081526020819052604090209082900390555b6001600160a01b0382166103aa576002805482900390556103c9565b6001600160a01b03821660009081526020819052604090208054820190555b816001600160a01b0316836001600160a01b03167fddf252ad1be2c89b69c2b068fc378daa952ba7f163c4a11628f55a4df523b3ef8360405161040e91815260200190565b60405180910390a3505050565b80516001600160a01b038116811461043257600080fd5b919050565b6000806040838503121561044a57600080fd5b6104538361041b565b91506104616020840161041b565b90509250929050565b634e487b7160e01b600052604160045260246000fd5b600181811c9082168061049457607f821691505b6020821081036104b457634e487b7160e01b600052602260045260246000fd5b50919050565b601f82111561050457806000526020600020601f840160051c810160208510156104e15750805b601f840160051c820191505b8181101561050157600081556001016104ed565b50505b505050565b81516001600160401b038111156105225761052261046a565b610536816105308454610480565b846104ba565b6020601f82116001811461056a57600083156105525750848201515b600019600385901b1c1916600184901b178455610501565b600084815260208120601f198516915b8281101561059a578785015182556020948501946001909201910161057a565b50848210156105b85786840151600019600387901b60f8161c191681555b50505050600190811b01905550565b634e487b7160e01b600052601160045260246000fd5b6001815b6001841115610618578085048111156105fc576105fc6105c7565b600184161561060a57908102905b60019390931c9280026105e1565b935093915050565b60008261062f57506001610273565b8161063c57506000610273565b8160018114610652576002811461065c57610678565b6001915050610273565b60ff84111561066d5761066d6105c7565b50506001821b610273565b5060208310610133831016604e8410600b841016171561069b575081810a610273565b6106a860001984846105dd565b80600019048211156106bc576106bc6105c7565b029392505050565b60006106d360ff841683610620565b9392505050565b8082028115828204841417610273576102736105c7565b602081526000825180602084015260005b8181101561071f5760208186018101516040868401015201610702565b506000604082850101526040601f19601f83011684010191505092915050565b805160208083015191908110156104b45760001960209190910360031b1b16919050565b80820180821115610273576102736105c7565b60805160a05160c05160e0516101005161012051610140516111146107d060003960006108f8015260006108cb015260006107be01526000610796015260006106f10152600061071b0152600061074501526111146000f3fe608060405234801561001057600080fd5b50600436106101215760003560e01c806370a08231116100ad57806395d89b411161007157806395d89b4114610251578063a9059cbb14610259578063d505accf1461026c578063dd62ed3e1461027f578063f2fde38b146102b857600080fd5b806370a08231146101d7578063715018a6146102005780637ecebe001461020857806384b0196e1461021b5780638da5cb5b1461023657600080fd5b806323b872dd116100f457806323b872dd14610185578063313ce567146101985780633644e515146101a757806340c10f19146101af5780635f7807a4146101c457600080fd5b806306fdde0314610126578063095ea7b31461014457806314a8bd0d1461016757806318160ddd1461017d575b600080fd5b61012e6102cb565b60405161013b9190610e58565b60405180910390f35b610157610152366004610e8e565b61035d565b604051901515815260200161013b565b61016f600181565b60405190815260200161013b565b60025461016f565b610157610193366004610eb8565b610377565b6040516012815260200161013b565b61016f61039b565b6101c26101bd366004610e8e565b6103aa565b005b6101c26101d2366004610e8e565b6103c0565b61016f6101e5366004610ef5565b6001600160a01b031660009081526020819052604090205490565b6101c26103e7565b61016f610216366004610ef5565b6103fb565b610223610419565b60405161013b9796959493929190610f10565b6005546040516001600160a01b03909116815260200161013b565b61012e61045f565b610157610267366004610e8e565b61046e565b6101c261027a366004610fa8565b61047c565b61016f61028d36600461101b565b6001600160a01b03918216600090815260016020908152604080832093909416825291909152205490565b6101c26102c6366004610ef5565b6105bb565b6060600380546102da9061104e565b80601f01602080910402602001604051908101604052809291908181526020018280546103069061104e565b80156103535780601f1061032857610100808354040283529160200191610353565b820191906000526020600020905b81548152906001019060200180831161033657829003601f168201915b5050505050905090565b60003361036b8185856105f9565b60019150505b92915050565b600033610385858285610606565b610390858585610685565b506001949350505050565b60006103a56106e4565b905090565b6103b261080f565b6103bc828261083c565b5050565b6103c861080f565b60006103d560018361109e565b90506103e2338483610685565b505050565b6103ef61080f565b6103f96000610872565b565b6001600160a01b038116600090815260086020526040812054610371565b60006060806000806000606061042d6108c4565b6104356108f1565b60408051600080825260208201909252600f60f81b9b939a50919850469750309650945092509050565b6060600480546102da9061104e565b60003361036b818585610685565b834211156104a55760405163313c898160e11b8152600481018590526024015b60405180910390fd5b60007f6e71edae12b1b97f4d1f60370fef10105fa2faae0126114a169c64845d6126c98888886104f28c6001600160a01b0316600090815260086020526040902080546001810190915590565b6040805160208101969096526001600160a01b0394851690860152929091166060840152608083015260a082015260c0810186905260e001604051602081830303815290604052805190602001209050600061054d8261091e565b9050600061055d8287878761094b565b9050896001600160a01b0316816001600160a01b0316146105a4576040516325c0072360e11b81526001600160a01b0380831660048301528b16602482015260440161049c565b6105af8a8a8a6105f9565b50505050505050505050565b6105c361080f565b6001600160a01b0381166105ed57604051631e4fbdf760e01b81526000600482015260240161049c565b6105f681610872565b50565b6103e28383836001610979565b6001600160a01b0383811660009081526001602090815260408083209386168352929052205460001981101561067f578181101561067057604051637dc7a0d960e11b81526001600160a01b0384166004820152602481018290526044810183905260640161049c565b61067f84848484036000610979565b50505050565b6001600160a01b0383166106af57604051634b637e8f60e11b81526000600482015260240161049c565b6001600160a01b0382166106d95760405163ec442f0560e01b81526000600482015260240161049c565b6103e2838383610a4e565b6000306001600160a01b037f00000000000000000000000000000000000000000000000000000000000000001614801561073d57507f000000000000000000000000000000000000000000000000000000000000000046145b1561076757507f000000000000000000000000000000000000000000000000000000000000000090565b6103a5604080517f8b73c3c69bb8fe3d512ecc4cf759cc79239f7b179b0ffacaa9a75d522b39400f60208201527f0000000000000000000000000000000000000000000000000000000000000000918101919091527f000000000000000000000000000000000000000000000000000000000000000060608201524660808201523060a082015260009060c00160405160208183030381529060405280519060200120905090565b6005546001600160a01b031633146103f95760405163118cdaa760e01b815233600482015260240161049c565b6001600160a01b0382166108665760405163ec442f0560e01b81526000600482015260240161049c565b6103bc60008383610a4e565b600580546001600160a01b038381166001600160a01b0319831681179093556040519116919082907f8be0079c531659141344cd1fd0a4f28419497f9722a3daafe3b4186f6b6457e090600090a35050565b60606103a57f00000000000000000000000000000000000000000000000000000000000000006006610b78565b60606103a57f00000000000000000000000000000000000000000000000000000000000000006007610b78565b600061037161092b6106e4565b8360405161190160f01b8152600281019290925260228201526042902090565b60008060008061095d88888888610c23565b92509250925061096d8282610cf2565b50909695505050505050565b6001600160a01b0384166109a35760405163e602df0560e01b81526000600482015260240161049c565b6001600160a01b0383166109cd57604051634a1406b160e11b81526000600482015260240161049c565b6001600160a01b038085166000908152600160209081526040808320938716835292905220829055801561067f57826001600160a01b0316846001600160a01b03167f8c5be1e5ebec7d5bd14f71427d1e84f3dd0314c0f7b2291e5b200ac8c7c3b92584604051610a4091815260200190565b60405180910390a350505050565b6001600160a01b038316610a79578060026000828254610a6e91906110b5565b90915550610aeb9050565b6001600160a01b03831660009081526020819052604090205481811015610acc5760405163391434e360e21b81526001600160a01b0385166004820152602481018290526044810183905260640161049c565b6001600160a01b03841660009081526020819052604090209082900390555b6001600160a01b038216610b0757600280548290039055610b26565b6001600160a01b03821660009081526020819052604090208054820190555b816001600160a01b0316836001600160a01b03167fddf252ad1be2c89b69c2b068fc378daa952ba7f163c4a11628f55a4df523b3ef83604051610b6b91815260200190565b60405180910390a3505050565b606060ff8314610b9257610b8b83610dab565b9050610371565b818054610b9e9061104e565b80601f0160208091040260200160405190810160405280929190818152602001828054610bca9061104e565b8015610c175780601f10610bec57610100808354040283529160200191610c17565b820191906000526020600020905b815481529060010190602001808311610bfa57829003601f168201915b50505050509050610371565b600080807f7fffffffffffffffffffffffffffffff5d576e7357a4501ddfe92f46681b20a0841115610c5e5750600091506003905082610ce8565b604080516000808252602082018084528a905260ff891692820192909252606081018790526080810186905260019060a0016020604051602081039080840390855afa158015610cb2573d6000803e3d6000fd5b5050604051601f1901519150506001600160a01b038116610cde57506000925060019150829050610ce8565b9250600091508190505b9450945094915050565b6000826003811115610d0657610d066110c8565b03610d0f575050565b6001826003811115610d2357610d236110c8565b03610d415760405163f645eedf60e01b815260040160405180910390fd5b6002826003811115610d5557610d556110c8565b03610d765760405163fce698f760e01b81526004810182905260240161049c565b6003826003811115610d8a57610d8a6110c8565b036103bc576040516335e2f38360e21b81526004810182905260240161049c565b60606000610db883610dea565b604080516020808252818301909252919250600091906020820181803683375050509182525060208101929092525090565b600060ff8216601f81111561037157604051632cd44ac360e21b815260040160405180910390fd5b6000815180845260005b81811015610e3857602081850181015186830182015201610e1c565b506000602082860101526020601f19601f83011685010191505092915050565b602081526000610e6b6020830184610e12565b9392505050565b80356001600160a01b0381168114610e8957600080fd5b919050565b60008060408385031215610ea157600080fd5b610eaa83610e72565b946020939093013593505050565b600080600060608486031215610ecd57600080fd5b610ed684610e72565b9250610ee460208501610e72565b929592945050506040919091013590565b600060208284031215610f0757600080fd5b610e6b82610e72565b60ff60f81b8816815260e060208201526000610f2f60e0830189610e12565b8281036040840152610f418189610e12565b606084018890526001600160a01b038716608085015260a0840186905283810360c08501528451808252602080870193509091019060005b81811015610f97578351835260209384019390920191600101610f79565b50909b9a5050505050505050505050565b600080600080600080600060e0888a031215610fc357600080fd5b610fcc88610e72565b9650610fda60208901610e72565b95506040880135945060608801359350608088013560ff81168114610ffe57600080fd5b9699959850939692959460a0840135945060c09093013592915050565b6000806040838503121561102e57600080fd5b61103783610e72565b915061104560208401610e72565b90509250929050565b600181811c9082168061106257607f821691505b60208210810361108257634e487b7160e01b600052602260045260246000fd5b50919050565b634e487b7160e01b600052601160045260246000fd5b808202811582820484141761037157610371611088565b8082018082111561037157610371611088565b634e487b7160e01b600052602160045260246000fdfea2646970667358221220967078065d6b17a95b9ebd6ddc1caf922f38677f76954961d5b8d70b6a4bbf7364736f6c634300081b0033",
  "linkReferences": {},
  "deployedLinkReferences": {}
}