{
  "_format": "hh-sol-artifact-1",
  "contractName": "Marketplace",
  "sourceName": "contracts/MarketPlace.sol",
  "abi": [
    {
      "inputs": [
        {
          "internalType": "address",
          "name": "stablecoinAddress",
          "type": "address"
        }
      ],
      "stateMutability": "nonpayable",
      "type": "constructor"
    },
    {
      "inputs": [],
      "name": "Marketplace__AlreadyBid",
      "type": "error"
    },
    {
      "inputs": [],
      "name": "Marketplace__AlreadyListed",
      "type": "error"
    },
    {
      "inputs": [],
      "name": "Marketplace__AlreadyRevealed",
      "type": "error"
    },
    {
      "inputs": [],
      "name": "Marketplace__AuctionAlreadyFinalized",
      "type": "error"
    },
    {
      "inputs": [],
      "name": "Marketplace__AuctionBiddingPhaseOver",
      "type": "error"
    },
    {
      "inputs": [],
      "name": "Marketplace__AuctionNotFinalized",
      "type": "error"
    },
    {
      "inputs": [],
      "name": "Marketplace__AuctionRevealPhaseNotStarted",
      "type": "error"
    },
    {
      "inputs": [],
      "name": "Marketplace__AuctionRevealPhaseOver",
      "type": "error"
    },
    {
      "inputs": [],
      "name": "Marketplace__CannotBuyOwnItem",
      "type": "error"
    },
    {
      "inputs": [],
      "name": "Marketplace__DepositTooLow",
      "type": "error"
    },
    {
      "inputs": [],
      "name": "Marketplace__HashMismatch",
      "type": "error"
    },
    {
      "inputs": [],
      "name": "Marketplace__InvalidTimes",
      "type": "error"
    },
    {
      "inputs": [],
      "name": "Marketplace__NoBidPlaced",
      "type": "error"
    },
    {
      "inputs": [],
      "name": "Marketplace__NoRefundAvailable",
      "type": "error"
    },
    {
      "inputs": [],
      "name": "Marketplace__NotListed",
      "type": "error"
    },
    {
      "inputs": [],
      "name": "Marketplace__NotTheOwner",
      "type": "error"
    },
    {
      "inputs": [],
      "name": "Marketplace__PriceMustBeAboveZero",
      "type": "error"
    },
    {
      "inputs": [],
      "name": "Marketplace__WinnerCannotWithdraw",
      "type": "error"
    },
    {
      "inputs": [],
      "name": "ReentrancyGuardReentrantCall",
      "type": "error"
    },
    {
      "anonymous": false,
      "inputs": [
        {
          "indexed": true,
          "internalType": "bytes32",
          "name": "auctionKey",
          "type": "bytes32"
        },
        {
          "indexed": false,
          "internalType": "address",
          "name": "winner",
          "type": "address"
        },
        {
          "indexed": false,
          "internalType": "uint256",
          "name": "winningPrice",
          "type": "uint256"
        }
      ],
      "name": "AuctionEnded",
      "type": "event"
    },
    {
      "anonymous": false,
      "inputs": [
        {
          "indexed": true,
          "internalType": "bytes32",
          "name": "auctionKey",
          "type": "bytes32"
        },
        {
          "indexed": true,
          "internalType": "address",
          "name": "bidder",
          "type": "address"
        },
        {
          "indexed": false,
          "internalType": "uint256",
          "name": "amount",
          "type": "uint256"
        }
      ],
      "name": "AuctionRefundWithdrawn",
      "type": "event"
    },
    {
      "anonymous": false,
      "inputs": [
        {
          "indexed": true,
          "internalType": "address",
          "name": "nftContract",
          "type": "address"
        },
        {
          "indexed": true,
          "internalType": "uint256",
          "name": "tokenId",
          "type": "uint256"
        },
        {
          "indexed": true,
          "internalType": "address",
          "name": "seller",
          "type": "address"
        },
        {
          "indexed": false,
          "internalType": "uint256",
          "name": "revealEndTime",
          "type": "uint256"
        }
      ],
      "name": "AuctionStarted",
      "type": "event"
    },
    {
      "anonymous": false,
      "inputs": [
        {
          "indexed": true,
          "internalType": "bytes32",
          "name": "auctionKey",
          "type": "bytes32"
        },
        {
          "indexed": true,
          "internalType": "address",
          "name": "bidder",
          "type": "address"
        },
        {
          "indexed": false,
          "internalType": "bytes32",
          "name": "hashedBid",
          "type": "bytes32"
        },
        {
          "indexed": false,
          "internalType": "uint256",
          "name": "depositAmount",
          "type": "uint256"
        }
      ],
      "name": "BidPlaced",
      "type": "event"
    },
    {
      "anonymous": false,
      "inputs": [
        {
          "indexed": true,
          "internalType": "bytes32",
          "name": "auctionKey",
          "type": "bytes32"
        },
        {
          "indexed": true,
          "internalType": "address",
          "name": "bidder",
          "type": "address"
        },
        {
          "indexed": false,
          "internalType": "uint256",
          "name": "revealedValue",
          "type": "uint256"
        }
      ],
      "name": "BidRevealed",
      "type": "event"
    },
    {
      "anonymous": false,
      "inputs": [
        {
          "indexed": true,
          "internalType": "address",
          "name": "nftContract",
          "type": "address"
        },
        {
          "indexed": true,
          "internalType": "uint256",
          "name": "tokenId",
          "type": "uint256"
        },
        {
          "indexed": true,
          "internalType": "address",
          "name": "seller",
          "type": "address"
        }
      ],
      "name": "Cancelled",
      "type": "event"
    },
    {
      "anonymous": false,
      "inputs": [
        {
          "indexed": true,
          "internalType": "address",
          "name": "nftContract",
          "type": "address"
        },
        {
          "indexed": true,
          "internalType": "uint256",
          "name": "tokenId",
          "type": "uint256"
        },
        {
          "indexed": true,
          "internalType": "address",
          "name": "seller",
          "type": "address"
        },
        {
          "indexed": false,
          "internalType": "uint256",
          "name": "price",
          "type": "uint256"
        }
      ],
      "name": "Listed",
      "type": "event"
    },
    {
      "anonymous": false,
      "inputs": [
        {
          "indexed": true,
          "internalType": "address",
          "name": "nftContract",
          "type": "address"
        },
        {
          "indexed": true,
          "internalType": "uint256",
          "name": "tokenId",
          "type": "uint256"
        },
        {
          "indexed": true,
          "internalType": "address",
          "name": "buyer",
          "type": "address"
        },
        {
          "indexed": false,
          "internalType": "uint256",
          "name": "price",
          "type": "uint256"
        }
      ],
      "name": "Sold",
      "type": "event"
    },
    {
      "inputs": [
        {
          "internalType": "address",
          "name": "nftContract",
          "type": "address"
        },
        {
          "internalType": "uint256",
          "name": "tokenId",
          "type": "uint256"
        }
      ],
      "name": "buyNFT",
      "outputs": [],
      "stateMutability": "nonpayable",
      "type": "function"
    },
    {
      "inputs": [
        {
          "internalType": "address",
          "name": "nftContract",
          "type": "address"
        },
        {
          "internalType": "uint256",
          "name": "tokenId",
          "type": "uint256"
        }
      ],
      "name": "cancelListing",
      "outputs": [],
      "stateMutability": "nonpayable",
      "type": "function"
    },
    {
      "inputs": [
        {
          "internalType": "address",
          "name": "nftContract",
          "type": "address"
        },
        {
          "internalType": "uint256",
          "name": "tokenId",
          "type": "uint256"
        }
      ],
      "name": "endAuction",
      "outputs": [],
      "stateMutability": "nonpayable",
      "type": "function"
    },
    {
      "inputs": [
        {
          "internalType": "address",
          "name": "nftContract",
          "type": "address"
        },
        {
          "internalType": "uint256",
          "name": "tokenId",
          "type": "uint256"
        }
      ],
      "name": "getAuction",
      "outputs": [
        {
          "components": [
            {
              "internalType": "address",
              "name": "seller",
              "type": "address"
            },
            {
              "internalType": "uint256",
              "name": "endTime",
              "type": "uint256"
            },
            {
              "internalType": "uint256",
              "name": "revealEndTime",
              "type": "uint256"
            },
            {
              "internalType": "bool",
              "name": "finalized",
              "type": "bool"
            },
            {
              "internalType": "address",
              "name": "highestBidder",
              "type": "address"
            },
            {
              "internalType": "uint256",
              "name": "highestBid",
              "type": "uint256"
            },
            {
              "internalType": "uint256",
              "name": "secondHighestBid",
              "type": "uint256"
            }
          ],
          "internalType": "struct Marketplace.Auction",
          "name": "",
          "type": "tuple"
        }
      ],
      "stateMutability": "view",
      "type": "function"
    },
    {
      "inputs": [
        {
          "internalType": "address",
          "name": "nftContract",
          "type": "address"
        },
        {
          "internalType": "uint256",
          "name": "tokenId",
          "type": "uint256"
        },
        {
          "internalType": "address",
          "name": "bidder",
          "type": "address"
        }
      ],
      "name": "getDeposit",
      "outputs": [
        {
          "internalType": "uint256",
          "name": "",
          "type": "uint256"
        }
      ],
      "stateMutability": "view",
      "type": "function"
    },
    {
      "inputs": [
        {
          "internalType": "address",
          "name": "nftContract",
          "type": "address"
        },
        {
          "internalType": "uint256",
          "name": "tokenId",
          "type": "uint256"
        },
        {
          "internalType": "address",
          "name": "bidder",
          "type": "address"
        }
      ],
      "name": "getHashedBid",
      "outputs": [
        {
          "internalType": "bytes32",
          "name": "",
          "type": "bytes32"
        }
      ],
      "stateMutability": "view",
      "type": "function"
    },
    {
      "inputs": [
        {
          "internalType": "address",
          "name": "nftContract",
          "type": "address"
        },
        {
          "internalType": "uint256",
          "name": "tokenId",
          "type": "uint256"
        }
      ],
      "name": "getListing",
      "outputs": [
        {
          "components": [
            {
              "internalType": "address",
              "name": "seller",
              "type": "address"
            },
            {
              "internalType": "uint256",
              "name": "price",
              "type": "uint256"
            }
          ],
          "internalType": "struct Marketplace.Listing",
          "name": "",
          "type": "tuple"
        }
      ],
      "stateMutability": "view",
      "type": "function"
    },
    {
      "inputs": [
        {
          "internalType": "address",
          "name": "nftContract",
          "type": "address"
        },
        {
          "internalType": "uint256",
          "name": "tokenId",
          "type": "uint256"
        },
        {
          "internalType": "address",
          "name": "bidder",
          "type": "address"
        }
      ],
      "name": "getRevealedBid",
      "outputs": [
        {
          "internalType": "uint256",
          "name": "",
          "type": "uint256"
        }
      ],
      "stateMutability": "view",
      "type": "function"
    },
    {
      "inputs": [],
      "name": "i_stablecoin",
      "outputs": [
        {
          "internalType": "contract IERC20",
          "name": "",
          "type": "address"
        }
      ],
      "stateMutability": "view",
      "type": "function"
    },
    {
      "inputs": [
        {
          "internalType": "address",
          "name": "nftContract",
          "type": "address"
        },
        {
          "internalType": "uint256",
          "name": "tokenId",
          "type": "uint256"
        },
        {
          "internalType": "uint256",
          "name": "price",
          "type": "uint256"
        }
      ],
      "name": "listNFT",
      "outputs": [],
      "stateMutability": "nonpayable",
      "type": "function"
    },
    {
      "inputs": [
        {
          "internalType": "address",
          "name": "nftContract",
          "type": "address"
        },
        {
          "internalType": "uint256",
          "name": "tokenId",
          "type": "uint256"
        },
        {
          "internalType": "bytes32",
          "name": "hashedBid",
          "type": "bytes32"
        },
        {
          "internalType": "uint256",
          "name": "depositAmount",
          "type": "uint256"
        }
      ],
      "name": "placeBid",
      "outputs": [],
      "stateMutability": "nonpayable",
      "type": "function"
    },
    {
      "inputs": [
        {
          "internalType": "address",
          "name": "nftContract",
          "type": "address"
        },
        {
          "internalType": "uint256",
          "name": "tokenId",
          "type": "uint256"
        },
        {
          "internalType": "uint256",
          "name": "bidValue",
          "type": "uint256"
        },
        {
          "internalType": "bytes32",
          "name": "secretNonce",
          "type": "bytes32"
        }
      ],
      "name": "revealBid",
      "outputs": [],
      "stateMutability": "nonpayable",
      "type": "function"
    },
    {
      "inputs": [
        {
          "internalType": "address",
          "name": "nftContract",
          "type": "address"
        },
        {
          "internalType": "uint256",
          "name": "tokenId",
          "type": "uint256"
        },
        {
          "internalType": "uint256",
          "name": "biddingTime",
          "type": "uint256"
        },
        {
          "internalType": "uint256",
          "name": "revealTime",
          "type": "uint256"
        }
      ],
      "name": "startAuction",
      "outputs": [],
      "stateMutability": "nonpayable",
      "type": "function"
    },
    {
      "inputs": [
        {
          "internalType": "address",
          "name": "nftContract",
          "type": "address"
        },
        {
          "internalType": "uint256",
          "name": "tokenId",
          "type": "uint256"
        }
      ],
      "name": "withdrawRefund",
      "outputs": [],
      "stateMutability": "nonpayable",
      "type": "function"
    }
  ],
  "bytecode": "0x60a060405234801561001057600080fd5b506040516118f93803806118f983398101604081905261002f91610045565b60016000556001600160a01b0316608052610075565b60006020828403121561005757600080fd5b81516001600160a01b038116811461006e57600080fd5b9392505050565b6080516118466100b3600039600081816102bf015281816103f4015281816105f801528181610ae701528181610b8c01526110aa01526118466000f3fe608060405234801561001057600080fd5b50600436106100ea5760003560e01c806388cedbc41161008c578063ad05f1b411610066578063ad05f1b414610294578063b2ddee06146102a7578063d8535dce146102ba578063f068051e146102f957600080fd5b806388cedbc41461025b5780639c1662731461026e578063a82ba76f1461028157600080fd5b806360b67aff116100c857806360b67aff1461013d578063762a66a2146101505780637887df85146101c457806388700d1c146101d757600080fd5b80631457ef60146100ef5780634537a9d71461011557806353ea4d8a1461012a575b600080fd5b6101026100fd36600461168c565b61030c565b6040519081526020015b60405180910390f35b6101286101233660046116ce565b610357565b005b610128610138366004611709565b6104ed565b61010261014b36600461168c565b6106b0565b61016361015e366004611709565b6106c0565b60405161010c919081516001600160a01b03908116825260208084015190830152604080840151908301526060808401511515908301526080808401519091169082015260a0828101519082015260c0918201519181019190915260e00190565b6101286101d23660046116ce565b610798565b6102376101e5366004611709565b604080518082018252600080825260209182018190526001600160a01b039485168152600180835283822094825293825282902082518084019093528054909416825292909101549181019190915290565b6040805182516001600160a01b03168152602092830151928101929092520161010c565b610128610269366004611709565b6109c4565b61012861027c3660046116ce565b610d8d565b61012861028f366004611709565b610fe6565b6101286102a2366004611735565b61121d565b6101286102b5366004611709565b611479565b6102e17f000000000000000000000000000000000000000000000000000000000000000081565b6040516001600160a01b03909116815260200161010c565b61010261030736600461168c565b6115f7565b60006003600061031c8686611603565b81526020019081526020016000206000836001600160a01b03166001600160a01b031681526020019081526020016000205490509392505050565b6001600160a01b038416600090815260026020908152604080832086845290915290206001810154421061039e57604051630390734160e21b815260040160405180910390fd5b60006103aa8686611603565b6000818152600360209081526040808320338452909152902054909150156103e5576040516370d0858560e11b815260040160405180910390fd5b6040516323b872dd60e01b81527f00000000000000000000000000000000000000000000000000000000000000006001600160a01b0316906323b872dd906104359033903090889060040161176a565b6020604051808303816000875af1158015610454573d6000803e3d6000fd5b505050506040513d601f19601f82011682018060405250810190610478919061178e565b5060008181526003602090815260408083203380855290835281842088905584845260048352818420818552835292819020869055805187815291820186905283917f94deb539e4536bc2fbd48b056776f72010823d7df7c4c78b578e9671c4c9f931910160405180910390a3505050505050565b6104f561164a565b6001600160a01b03821660009081526002602090815260408083208484529091529020600381015460ff1661053d57604051637702b1bf60e11b815260040160405180910390fd5b600381015461010090046001600160a01b0316330361056f57604051631746573d60e21b815260040160405180910390fd5b600061057b8484611603565b60008181526004602090815260408083203384529091528120549192508190036105b857604051634aab685960e01b815260040160405180910390fd5b600082815260046020818152604080842033808652908352818520859055815163a9059cbb60e01b81529384015260248301859052516001600160a01b037f0000000000000000000000000000000000000000000000000000000000000000169363a9059cbb9360448082019493929183900301908290875af1158015610643573d6000803e3d6000fd5b505050506040513d601f19601f82011682018060405250810190610667919061178e565b50604051818152339083907f65327442d13b89b8750fe694450ad35304af7fef0385fb259e5aa7cc8b2c42e19060200160405180910390a35050506106ac6001600055565b5050565b60006005600061031c8686611603565b6107146040518060e0016040528060006001600160a01b03168152602001600081526020016000815260200160001515815260200160006001600160a01b0316815260200160008152602001600081525090565b506001600160a01b038083166000908152600260208181526040808420868552825292839020835160e0810185528154861681526001820154928101929092529182015492810192909252600381015460ff81161515606084015261010090049092166080820152600482015460a082015260059091015460c08201525b92915050565b6001600160a01b0384166000908152600260209081526040808320868452909152902060018101544210156107e0576040516341b269a360e11b815260040160405180910390fd5b806002015442106108045760405163816316b360e01b815260040160405180910390fd5b60006108108686611603565b600081815260036020908152604080832033845290915290205490915061084a57604051633da9879960e01b815260040160405180910390fd5b6000818152600560209081526040808320338452909152902054156108825760405163f5d267cf60e01b815260040160405180910390fd5b604080516020808201879052818301869052825180830384018152606090920183528151918101919091206000848152600383528381203382529092529190205481146108e25760405163f49aec8560e01b815260040160405180910390fd5b600082815260046020908152604080832033845290915290205485111561091c57604051632bc7bb0f60e11b815260040160405180910390fd5b600082815260056020908152604080832033845290915290208590556004830154851115610970576004830180546005850155859055600383018054610100600160a81b0319163361010002179055610984565b826005015485111561098457600583018590555b604051858152339083907f9c253a2ca87d91c2658cfbfcc3d6081283acc3cf95c2961667a858b531ec491f9060200160405180910390a350505050505050565b6109cc61164a565b6001600160a01b038216600090815260026020818152604080842085855290915290912090810154421015610a145760405163816316b360e01b815260040160405180910390fd5b600381015460ff1615610a3a57604051634df4d1ab60e01b815260040160405180910390fd5b60038101805460ff191660011790556000610a558484611603565b600383015490915061010090046001600160a01b031615610ce05760058201546000819003610a85575060048201545b6000828152600460209081526040808320600387015461010090046001600160a01b0316845290915281205490610abc83836117cd565b855460405163a9059cbb60e01b81526001600160a01b039182166004820152602481018690529192507f0000000000000000000000000000000000000000000000000000000000000000169063a9059cbb906044016020604051808303816000875af1158015610b30573d6000803e3d6000fd5b505050506040513d601f19601f82011682018060405250810190610b54919061178e565b508015610bfb57600385015460405163a9059cbb60e01b81526101009091046001600160a01b039081166004830152602482018390527f0000000000000000000000000000000000000000000000000000000000000000169063a9059cbb906044016020604051808303816000875af1158015610bd5573d6000803e3d6000fd5b505050506040513d601f19601f82011682018060405250810190610bf9919061178e565b505b6003850154604051632142170760e11b81526001600160a01b03808a16926342842e0e92610c36923092610100900416908b9060040161176a565b600060405180830381600087803b158015610c5057600080fd5b505af1158015610c64573d6000803e3d6000fd5b505050600085815260046020908152604080832060038a0180546001600160a01b036101009182900481168752928552838620959095555482519490041683529082018690528692507f4898413e58dd21ed9179dd98f8c9313f8359aae688bff5403ed56a6677bcfe97910160405180910390a2505050610d81565b8154604051632142170760e11b81526001600160a01b03808716926342842e0e92610d139230921690889060040161176a565b600060405180830381600087803b158015610d2d57600080fd5b505af1158015610d41573d6000803e3d6000fd5b505060408051600080825260208201528493507f4898413e58dd21ed9179dd98f8c9313f8359aae688bff5403ed56a6677bcfe9792500160405180910390a25b50506106ac6001600055565b6001600160a01b038085166000908152600160209081526040808320878452909152902054859185911615610dd55760405163aa8102df60e01b815260040160405180910390fd5b6001600160a01b0382811660009081526002602090815260408083208584529091529020541615610e195760405163aa8102df60e01b815260040160405180910390fd5b8585336040516331a9108f60e11b8152600481018390526001600160a01b0391821691841690636352211e90602401602060405180830381865afa158015610e65573d6000803e3d6000fd5b505050506040513d601f19601f82011682018060405250810190610e8991906117e0565b6001600160a01b031614610eb057604051633ee7716760e21b815260040160405180910390fd5b851580610ebb575084155b15610ed9576040516328c71da360e11b815260040160405180910390fd5b6040516323b872dd60e01b81526001600160a01b038916906323b872dd90610f0990339030908c9060040161176a565b600060405180830381600087803b158015610f2357600080fd5b505af1158015610f37573d6000803e3d6000fd5b505050506001600160a01b03881660009081526002602090815260408083208a8452909152902080546001600160a01b03191633178155610f7887426117fd565b600182015585610f8888426117fd565b610f9291906117fd565b60028201819055604051908152339089906001600160a01b038c16907f3f56989faf73e0fa48db704c98688b152de2669b2c98b59b7e6c22a7998fe5f99060200160405180910390a4505050505050505050565b610fee61164a565b6001600160a01b038083166000908152600160209081526040808320858452909152902054839183911661103557604051630d21080b60e21b815260040160405180910390fd5b6001600160a01b038481166000908152600160208181526040808420888552825292839020835180850190945280549094168084529390910154908201529033900361109457604051635258897560e11b815260040160405180910390fd5b805160208201516040516323b872dd60e01b81527f00000000000000000000000000000000000000000000000000000000000000006001600160a01b0316926323b872dd926110e9923392919060040161176a565b6020604051808303816000875af1158015611108573d6000803e3d6000fd5b505050506040513d601f19601f8201168201806040525081019061112c919061178e565b506001600160a01b0385166000818152600160208181526040808420898552909152822080546001600160a01b031916815501556342842e0e3033876040518463ffffffff1660e01b81526004016111869392919061176a565b600060405180830381600087803b1580156111a057600080fd5b505af11580156111b4573d6000803e3d6000fd5b505050506111bf3390565b6001600160a01b031684866001600160a01b03167f5320a7a9b87f79d5f7316ef1338262f16072733cc053d083f0cd2018928ded64846020015160405161120891815260200190565b60405180910390a45050506106ac6001600055565b6001600160a01b0380841660009081526001602090815260408083208684529091529020548491849116156112655760405163aa8102df60e01b815260040160405180910390fd5b6001600160a01b03828116600090815260026020908152604080832085845290915290205416156112a95760405163aa8102df60e01b815260040160405180910390fd5b8484336040516331a9108f60e11b8152600481018390526001600160a01b0391821691841690636352211e90602401602060405180830381865afa1580156112f5573d6000803e3d6000fd5b505050506040513d601f19601f8201168201806040525081019061131991906117e0565b6001600160a01b03161461134057604051633ee7716760e21b815260040160405180910390fd5b8460000361136157604051630579290160e31b815260040160405180910390fd5b6040516323b872dd60e01b81526001600160a01b038816906323b872dd9061139190339030908b9060040161176a565b600060405180830381600087803b1580156113ab57600080fd5b505af11580156113bf573d6000803e3d6000fd5b5050505060405180604001604052806113d53390565b6001600160a01b03908116825260209182018890528981166000908152600180845260408083208c84528552909120845181546001600160a01b03191693169290921782559290910151910155336001600160a01b031686886001600160a01b03167f8b06cda60618abf2b2d07227f9dd63ec6349ca3269ce0eb18d49122a48362ad88860405161146891815260200190565b60405180910390a450505050505050565b6001600160a01b03808316600090815260016020908152604080832085845290915290205483918391166114c057604051630d21080b60e21b815260040160405180910390fd5b6001600160a01b0384811660009081526001602081815260408084208885528252928390208351808501909452805490941680845293909101549082015290331461151e57604051633ee7716760e21b815260040160405180910390fd5b6001600160a01b0385166000818152600160208181526040808420898552909152822080546001600160a01b031916815501556342842e0e3033876040518463ffffffff1660e01b81526004016115779392919061176a565b600060405180830381600087803b15801561159157600080fd5b505af11580156115a5573d6000803e3d6000fd5b505050506115b03390565b6001600160a01b031684866001600160a01b03167f0c8fde439b4e72d175ffeb3c5f3c15c6f70f473413f4c2d68f8971c0d629b60d60405160405180910390a45050505050565b60006004600061031c86865b6040516bffffffffffffffffffffffff19606084901b1660208201526034810182905260009060540160405160208183030381529060405280519060200120905092915050565b60026000540361166d57604051633ee5aeb560e01b815260040160405180910390fd5b6002600055565b6001600160a01b038116811461168957600080fd5b50565b6000806000606084860312156116a157600080fd5b83356116ac81611674565b92506020840135915060408401356116c381611674565b809150509250925092565b600080600080608085870312156116e457600080fd5b84356116ef81611674565b966020860135965060408601359560600135945092505050565b6000806040838503121561171c57600080fd5b823561172781611674565b946020939093013593505050565b60008060006060848603121561174a57600080fd5b833561175581611674565b95602085013595506040909401359392505050565b6001600160a01b039384168152919092166020820152604081019190915260600190565b6000602082840312156117a057600080fd5b815180151581146117b057600080fd5b9392505050565b634e487b7160e01b600052601160045260246000fd5b81810381811115610792576107926117b7565b6000602082840312156117f257600080fd5b81516117b081611674565b80820180821115610792576107926117b756fea2646970667358221220d82d53fbbe2ea37a6fafbb113275eb0117fb1c536ccadb1810afd7a55ac93ee664736f6c634300081b0033",
  "linkReferences": {},
  "deployedLinkReferences": {}
}